{
  "contractName": "Token_v2",
  "abi": [
    {
      "anonymous": false,
      "inputs": [
        {
          "indexed": true,
          "internalType": "address",
          "name": "oldAdmin",
          "type": "address"
        },
        {
          "indexed": true,
          "internalType": "address",
          "name": "newAdmin",
          "type": "address"
        },
        {
          "indexed": true,
          "internalType": "address",
          "name": "sender",
          "type": "address"
        }
      ],
      "name": "AdminChanged",
      "type": "event"
    },
    {
      "anonymous": false,
      "inputs": [
        {
          "indexed": true,
          "internalType": "address",
          "name": "owner",
          "type": "address"
        },
        {
          "indexed": true,
          "internalType": "address",
          "name": "spender",
          "type": "address"
        },
        {
          "indexed": false,
          "internalType": "uint256",
          "name": "value",
          "type": "uint256"
        }
      ],
      "name": "Approval",
      "type": "event"
    },
    {
      "anonymous": false,
      "inputs": [
        {
          "indexed": true,
          "internalType": "address",
          "name": "authorizer",
          "type": "address"
        },
        {
          "indexed": true,
          "internalType": "bytes32",
          "name": "nonce",
          "type": "bytes32"
        }
      ],
      "name": "AuthorizationCanceled",
      "type": "event"
    },
    {
      "anonymous": false,
      "inputs": [
        {
          "indexed": true,
          "internalType": "address",
          "name": "authorizer",
          "type": "address"
        },
        {
          "indexed": true,
          "internalType": "bytes32",
          "name": "nonce",
          "type": "bytes32"
        }
      ],
      "name": "AuthorizationUsed",
      "type": "event"
    },
    {
      "anonymous": false,
      "inputs": [
        {
          "indexed": true,
          "internalType": "address",
          "name": "burnee",
          "type": "address"
        },
        {
          "indexed": false,
          "internalType": "uint256",
          "name": "amount",
          "type": "uint256"
        },
        {
          "indexed": true,
          "internalType": "address",
          "name": "sender",
          "type": "address"
        }
      ],
      "name": "Burn",
      "type": "event"
    },
    {
      "anonymous": false,
      "inputs": [
        {
          "indexed": true,
          "internalType": "uint256",
          "name": "newCapacity",
          "type": "uint256"
        },
        {
          "indexed": true,
          "internalType": "address",
          "name": "sender",
          "type": "address"
        }
      ],
      "name": "Cap",
      "type": "event"
    },
    {
      "anonymous": false,
      "inputs": [
        {
          "indexed": true,
          "internalType": "address",
          "name": "oldCapper",
          "type": "address"
        },
        {
          "indexed": true,
          "internalType": "address",
          "name": "newCapper",
          "type": "address"
        },
        {
          "indexed": true,
          "internalType": "address",
          "name": "sender",
          "type": "address"
        }
      ],
      "name": "CapperChanged",
      "type": "event"
    },
    {
      "anonymous": false,
      "inputs": [
        {
          "indexed": true,
          "internalType": "address",
          "name": "mintee",
          "type": "address"
        },
        {
          "indexed": false,
          "internalType": "uint256",
          "name": "amount",
          "type": "uint256"
        },
        {
          "indexed": true,
          "internalType": "address",
          "name": "sender",
          "type": "address"
        }
      ],
      "name": "Mint",
      "type": "event"
    },
    {
      "anonymous": false,
      "inputs": [
        {
          "indexed": true,
          "internalType": "address",
          "name": "oldMinterAdmin",
          "type": "address"
        },
        {
          "indexed": true,
          "internalType": "address",
          "name": "newMinterAdmin",
          "type": "address"
        },
        {
          "indexed": true,
          "internalType": "address",
          "name": "sender",
          "type": "address"
        }
      ],
      "name": "MinterAdminChanged",
      "type": "event"
    },
    {
      "anonymous": false,
      "inputs": [
        {
          "indexed": true,
          "internalType": "address",
          "name": "oldMinter",
          "type": "address"
        },
        {
          "indexed": true,
          "internalType": "address",
          "name": "newMinter",
          "type": "address"
        },
        {
          "indexed": true,
          "internalType": "address",
          "name": "sender",
          "type": "address"
        }
      ],
      "name": "MinterChanged",
      "type": "event"
    },
    {
      "anonymous": false,
      "inputs": [
        {
          "indexed": true,
          "internalType": "address",
          "name": "oldOwner",
          "type": "address"
        },
        {
          "indexed": true,
          "internalType": "address",
          "name": "newOwner",
          "type": "address"
        },
        {
          "indexed": true,
          "internalType": "address",
          "name": "sender",
          "type": "address"
        }
      ],
      "name": "OwnerChanged",
      "type": "event"
    },
    {
      "anonymous": false,
      "inputs": [
        {
          "indexed": false,
          "internalType": "bool",
          "name": "status",
          "type": "bool"
        },
        {
          "indexed": true,
          "internalType": "address",
          "name": "sender",
          "type": "address"
        }
      ],
      "name": "Pause",
      "type": "event"
    },
    {
      "anonymous": false,
      "inputs": [
        {
          "indexed": true,
          "internalType": "address",
          "name": "oldPauser",
          "type": "address"
        },
        {
          "indexed": true,
          "internalType": "address",
          "name": "newPauser",
          "type": "address"
        },
        {
          "indexed": true,
          "internalType": "address",
          "name": "sender",
          "type": "address"
        }
      ],
      "name": "PauserChanged",
      "type": "event"
    },
    {
      "anonymous": false,
      "inputs": [
        {
          "indexed": true,
          "internalType": "address",
          "name": "addr",
          "type": "address"
        },
        {
          "indexed": false,
          "internalType": "uint256",
          "name": "amount",
          "type": "uint256"
        }
      ],
      "name": "ProhibitedAddressWiped",
      "type": "event"
    },
    {
      "anonymous": false,
      "inputs": [
        {
          "indexed": true,
          "internalType": "address",
          "name": "oldProhibiter",
          "type": "address"
        },
        {
          "indexed": true,
          "internalType": "address",
          "name": "newProhibiter",
          "type": "address"
        },
        {
          "indexed": true,
          "internalType": "address",
          "name": "sender",
          "type": "address"
        }
      ],
      "name": "ProhibiterChanged",
      "type": "event"
    },
    {
      "anonymous": false,
      "inputs": [
        {
          "indexed": true,
          "internalType": "address",
          "name": "prohibited",
          "type": "address"
        },
        {
          "indexed": false,
          "internalType": "bool",
          "name": "status",
          "type": "bool"
        },
        {
          "indexed": true,
          "internalType": "address",
          "name": "sender",
          "type": "address"
        }
      ],
      "name": "Prohibition",
      "type": "event"
    },
    {
      "anonymous": false,
      "inputs": [
        {
          "indexed": true,
          "internalType": "address",
          "name": "from",
          "type": "address"
        },
        {
          "indexed": true,
          "internalType": "address",
          "name": "to",
          "type": "address"
        },
        {
          "indexed": false,
          "internalType": "uint256",
          "name": "value",
          "type": "uint256"
        }
      ],
      "name": "Transfer",
      "type": "event"
    },
    {
      "anonymous": false,
      "inputs": [
        {
          "indexed": true,
          "internalType": "address",
          "name": "oldWiper",
          "type": "address"
        },
        {
          "indexed": true,
          "internalType": "address",
          "name": "newWiper",
          "type": "address"
        },
        {
          "indexed": true,
          "internalType": "address",
          "name": "sender",
          "type": "address"
        }
      ],
      "name": "WiperChanged",
      "type": "event"
    },
    {
      "inputs": [],
      "name": "APPROVE_WITH_AUTHORIZATION_TYPEHASH",
      "outputs": [
        {
          "internalType": "bytes32",
          "name": "",
          "type": "bytes32"
        }
      ],
      "stateMutability": "view",
      "type": "function",
      "constant": true
    },
    {
      "inputs": [],
      "name": "CANCEL_AUTHORIZATION_TYPEHASH",
      "outputs": [
        {
          "internalType": "bytes32",
          "name": "",
          "type": "bytes32"
        }
      ],
      "stateMutability": "view",
      "type": "function",
      "constant": true
    },
    {
      "inputs": [],
      "name": "DECREASE_ALLOWANCE_WITH_AUTHORIZATION_TYPEHASH",
      "outputs": [
        {
          "internalType": "bytes32",
          "name": "",
          "type": "bytes32"
        }
      ],
      "stateMutability": "view",
      "type": "function",
      "constant": true
    },
    {
      "inputs": [],
      "name": "DOMAIN_SEPARATOR",
      "outputs": [
        {
          "internalType": "bytes32",
          "name": "",
          "type": "bytes32"
        }
      ],
      "stateMutability": "view",
      "type": "function",
      "constant": true
    },
    {
      "inputs": [],
      "name": "INCREASE_ALLOWANCE_WITH_AUTHORIZATION_TYPEHASH",
      "outputs": [
        {
          "internalType": "bytes32",
          "name": "",
          "type": "bytes32"
        }
      ],
      "stateMutability": "view",
      "type": "function",
      "constant": true
    },
    {
      "inputs": [],
      "name": "PERMIT_TYPEHASH",
      "outputs": [
        {
          "internalType": "bytes32",
          "name": "",
          "type": "bytes32"
        }
      ],
      "stateMutability": "view",
      "type": "function",
      "constant": true
    },
    {
      "inputs": [],
      "name": "TRANSFER_WITH_AUTHORIZATION_TYPEHASH",
      "outputs": [
        {
          "internalType": "bytes32",
          "name": "",
          "type": "bytes32"
        }
      ],
      "stateMutability": "view",
      "type": "function",
      "constant": true
    },
    {
      "inputs": [],
      "name": "admin",
      "outputs": [
        {
          "internalType": "address",
          "name": "",
          "type": "address"
        }
      ],
      "stateMutability": "view",
      "type": "function",
      "constant": true
    },
    {
      "inputs": [
        {
          "internalType": "address",
          "name": "owner",
          "type": "address"
        },
        {
          "internalType": "address",
          "name": "spender",
          "type": "address"
        }
      ],
      "name": "allowance",
      "outputs": [
        {
          "internalType": "uint256",
          "name": "",
          "type": "uint256"
        }
      ],
      "stateMutability": "view",
      "type": "function",
      "constant": true
    },
    {
      "inputs": [
        {
          "internalType": "address",
          "name": "spender",
          "type": "address"
        },
        {
          "internalType": "uint256",
          "name": "value",
          "type": "uint256"
        }
      ],
      "name": "approve",
      "outputs": [
        {
          "internalType": "bool",
          "name": "",
          "type": "bool"
        }
      ],
      "stateMutability": "nonpayable",
      "type": "function"
    },
    {
      "inputs": [
        {
          "internalType": "address",
          "name": "owner",
          "type": "address"
        },
        {
          "internalType": "address",
          "name": "spender",
          "type": "address"
        },
        {
          "internalType": "uint256",
          "name": "value",
          "type": "uint256"
        },
        {
          "internalType": "uint256",
          "name": "validAfter",
          "type": "uint256"
        },
        {
          "internalType": "uint256",
          "name": "validBefore",
          "type": "uint256"
        },
        {
          "internalType": "bytes32",
          "name": "nonce",
          "type": "bytes32"
        },
        {
          "internalType": "uint8",
          "name": "v",
          "type": "uint8"
        },
        {
          "internalType": "bytes32",
          "name": "r",
          "type": "bytes32"
        },
        {
          "internalType": "bytes32",
          "name": "s",
          "type": "bytes32"
        }
      ],
      "name": "approveWithAuthorization",
      "outputs": [],
      "stateMutability": "nonpayable",
      "type": "function"
    },
    {
      "inputs": [
        {
          "internalType": "address",
          "name": "authorizer",
          "type": "address"
        },
        {
          "internalType": "bytes32",
          "name": "nonce",
          "type": "bytes32"
        }
      ],
      "name": "authorizationState",
      "outputs": [
        {
          "internalType": "enum MetaTransactions.AuthorizationState",
          "name": "",
          "type": "uint8"
        }
      ],
      "stateMutability": "view",
      "type": "function",
      "constant": true
    },
    {
      "inputs": [
        {
          "internalType": "address",
          "name": "account",
          "type": "address"
        }
      ],
      "name": "balanceOf",
      "outputs": [
        {
          "internalType": "uint256",
          "name": "",
          "type": "uint256"
        }
      ],
      "stateMutability": "view",
      "type": "function",
      "constant": true
    },
    {
      "inputs": [
        {
          "internalType": "uint256",
          "name": "_amount",
          "type": "uint256"
        }
      ],
      "name": "burn",
      "outputs": [],
      "stateMutability": "nonpayable",
      "type": "function"
    },
    {
      "inputs": [
        {
          "internalType": "address",
          "name": "authorizer",
          "type": "address"
        },
        {
          "internalType": "bytes32",
          "name": "nonce",
          "type": "bytes32"
        },
        {
          "internalType": "uint8",
          "name": "v",
          "type": "uint8"
        },
        {
          "internalType": "bytes32",
          "name": "r",
          "type": "bytes32"
        },
        {
          "internalType": "bytes32",
          "name": "s",
          "type": "bytes32"
        }
      ],
      "name": "cancelAuthorization",
      "outputs": [],
      "stateMutability": "nonpayable",
      "type": "function"
    },
    {
      "inputs": [
        {
          "internalType": "uint256",
          "name": "_amount",
          "type": "uint256"
        }
      ],
      "name": "cap",
      "outputs": [],
      "stateMutability": "nonpayable",
      "type": "function"
    },
    {
      "inputs": [],
      "name": "capacity",
      "outputs": [
        {
          "internalType": "uint256",
          "name": "",
          "type": "uint256"
        }
      ],
      "stateMutability": "view",
      "type": "function",
      "constant": true
    },
    {
      "inputs": [],
      "name": "capper",
      "outputs": [
        {
          "internalType": "address",
          "name": "",
          "type": "address"
        }
      ],
      "stateMutability": "view",
      "type": "function",
      "constant": true
    },
    {
      "inputs": [
        {
          "internalType": "address",
          "name": "_account",
          "type": "address"
        }
      ],
      "name": "changeAdmin",
      "outputs": [],
      "stateMutability": "nonpayable",
      "type": "function"
    },
    {
      "inputs": [
        {
          "internalType": "address",
          "name": "_account",
          "type": "address"
        }
      ],
      "name": "changeCapper",
      "outputs": [],
      "stateMutability": "nonpayable",
      "type": "function"
    },
    {
      "inputs": [
        {
          "internalType": "address",
          "name": "_account",
          "type": "address"
        }
      ],
      "name": "changeMinter",
      "outputs": [],
      "stateMutability": "nonpayable",
      "type": "function"
    },
    {
      "inputs": [
        {
          "internalType": "address",
          "name": "_account",
          "type": "address"
        }
      ],
      "name": "changeMinterAdmin",
      "outputs": [],
      "stateMutability": "nonpayable",
      "type": "function"
    },
    {
      "inputs": [
        {
          "internalType": "address",
          "name": "_account",
          "type": "address"
        }
      ],
      "name": "changeOwner",
      "outputs": [],
      "stateMutability": "nonpayable",
      "type": "function"
    },
    {
      "inputs": [
        {
          "internalType": "address",
          "name": "_account",
          "type": "address"
        }
      ],
      "name": "changePauser",
      "outputs": [],
      "stateMutability": "nonpayable",
      "type": "function"
    },
    {
      "inputs": [
        {
          "internalType": "address",
          "name": "_account",
          "type": "address"
        }
      ],
      "name": "changeProhibiter",
      "outputs": [],
      "stateMutability": "nonpayable",
      "type": "function"
    },
    {
      "inputs": [
        {
          "internalType": "address",
          "name": "_account",
          "type": "address"
        }
      ],
      "name": "changeWiper",
      "outputs": [],
      "stateMutability": "nonpayable",
      "type": "function"
    },
    {
      "inputs": [],
      "name": "decimals",
      "outputs": [
        {
          "internalType": "uint8",
          "name": "",
          "type": "uint8"
        }
      ],
      "stateMutability": "view",
      "type": "function",
      "constant": true
    },
    {
      "inputs": [
        {
          "internalType": "address",
          "name": "spender",
          "type": "address"
        },
        {
          "internalType": "uint256",
          "name": "subtractedValue",
          "type": "uint256"
        }
      ],
      "name": "decreaseAllowance",
      "outputs": [
        {
          "internalType": "bool",
          "name": "",
          "type": "bool"
        }
      ],
      "stateMutability": "nonpayable",
      "type": "function"
    },
    {
      "inputs": [
        {
          "internalType": "address",
          "name": "owner",
          "type": "address"
        },
        {
          "internalType": "address",
          "name": "spender",
          "type": "address"
        },
        {
          "internalType": "uint256",
          "name": "decrement",
          "type": "uint256"
        },
        {
          "internalType": "uint256",
          "name": "validAfter",
          "type": "uint256"
        },
        {
          "internalType": "uint256",
          "name": "validBefore",
          "type": "uint256"
        },
        {
          "internalType": "bytes32",
          "name": "nonce",
          "type": "bytes32"
        },
        {
          "internalType": "uint8",
          "name": "v",
          "type": "uint8"
        },
        {
          "internalType": "bytes32",
          "name": "r",
          "type": "bytes32"
        },
        {
          "internalType": "bytes32",
          "name": "s",
          "type": "bytes32"
        }
      ],
      "name": "decreaseAllowanceWithAuthorization",
      "outputs": [],
      "stateMutability": "nonpayable",
      "type": "function"
    },
    {
      "inputs": [
        {
          "internalType": "address",
          "name": "spender",
          "type": "address"
        },
        {
          "internalType": "uint256",
          "name": "addedValue",
          "type": "uint256"
        }
      ],
      "name": "increaseAllowance",
      "outputs": [
        {
          "internalType": "bool",
          "name": "",
          "type": "bool"
        }
      ],
      "stateMutability": "nonpayable",
      "type": "function"
    },
    {
      "inputs": [
        {
          "internalType": "address",
          "name": "owner",
          "type": "address"
        },
        {
          "internalType": "address",
          "name": "spender",
          "type": "address"
        },
        {
          "internalType": "uint256",
          "name": "increment",
          "type": "uint256"
        },
        {
          "internalType": "uint256",
          "name": "validAfter",
          "type": "uint256"
        },
        {
          "internalType": "uint256",
          "name": "validBefore",
          "type": "uint256"
        },
        {
          "internalType": "bytes32",
          "name": "nonce",
          "type": "bytes32"
        },
        {
          "internalType": "uint8",
          "name": "v",
          "type": "uint8"
        },
        {
          "internalType": "bytes32",
          "name": "r",
          "type": "bytes32"
        },
        {
          "internalType": "bytes32",
          "name": "s",
          "type": "bytes32"
        }
      ],
      "name": "increaseAllowanceWithAuthorization",
      "outputs": [],
      "stateMutability": "nonpayable",
      "type": "function"
    },
    {
      "inputs": [
        {
          "internalType": "string",
          "name": "_name",
          "type": "string"
        },
        {
          "internalType": "string",
          "name": "_symbol",
          "type": "string"
        },
        {
          "internalType": "uint8",
          "name": "_decimals",
          "type": "uint8"
        },
        {
          "internalType": "address",
          "name": "_owner",
          "type": "address"
        },
        {
          "internalType": "address",
          "name": "_admin",
          "type": "address"
        },
        {
          "internalType": "address",
          "name": "_capper",
          "type": "address"
        },
        {
          "internalType": "address",
          "name": "_prohibiter",
          "type": "address"
        },
        {
          "internalType": "address",
          "name": "_pauser",
          "type": "address"
        },
        {
          "internalType": "address",
          "name": "_minterAdmin",
          "type": "address"
        },
        {
          "internalType": "address",
          "name": "_minter",
          "type": "address"
        }
      ],
      "name": "initialize",
      "outputs": [],
      "stateMutability": "nonpayable",
      "type": "function"
    },
    {
      "inputs": [
        {
          "internalType": "address",
          "name": "_account",
          "type": "address"
        }
      ],
      "name": "initializeWiper",
      "outputs": [],
      "stateMutability": "nonpayable",
      "type": "function"
    },
    {
      "inputs": [
        {
          "internalType": "address",
          "name": "_account",
          "type": "address"
        },
        {
          "internalType": "uint256",
          "name": "_amount",
          "type": "uint256"
        }
      ],
      "name": "mint",
      "outputs": [],
      "stateMutability": "nonpayable",
      "type": "function"
    },
    {
      "inputs": [],
      "name": "minter",
      "outputs": [
        {
          "internalType": "address",
          "name": "",
          "type": "address"
        }
      ],
      "stateMutability": "view",
      "type": "function",
      "constant": true
    },
    {
      "inputs": [],
      "name": "minterAdmin",
      "outputs": [
        {
          "internalType": "address",
          "name": "",
          "type": "address"
        }
      ],
      "stateMutability": "view",
      "type": "function",
      "constant": true
    },
    {
      "inputs": [],
      "name": "name",
      "outputs": [
        {
          "internalType": "string",
          "name": "",
          "type": "string"
        }
      ],
      "stateMutability": "view",
      "type": "function",
      "constant": true
    },
    {
      "inputs": [
        {
          "internalType": "address",
          "name": "owner",
          "type": "address"
        }
      ],
      "name": "nonces",
      "outputs": [
        {
          "internalType": "uint256",
          "name": "",
          "type": "uint256"
        }
      ],
      "stateMutability": "view",
      "type": "function",
      "constant": true
    },
    {
      "inputs": [],
      "name": "owner",
      "outputs": [
        {
          "internalType": "address",
          "name": "",
          "type": "address"
        }
      ],
      "stateMutability": "view",
      "type": "function",
      "constant": true
    },
    {
      "inputs": [],
      "name": "pause",
      "outputs": [],
      "stateMutability": "nonpayable",
      "type": "function"
    },
    {
      "inputs": [],
      "name": "paused",
      "outputs": [
        {
          "internalType": "bool",
          "name": "",
          "type": "bool"
        }
      ],
      "stateMutability": "view",
      "type": "function",
      "constant": true
    },
    {
      "inputs": [],
      "name": "pauser",
      "outputs": [
        {
          "internalType": "address",
          "name": "",
          "type": "address"
        }
      ],
      "stateMutability": "view",
      "type": "function",
      "constant": true
    },
    {
      "inputs": [
        {
          "internalType": "address",
          "name": "owner",
          "type": "address"
        },
        {
          "internalType": "address",
          "name": "spender",
          "type": "address"
        },
        {
          "internalType": "uint256",
          "name": "value",
          "type": "uint256"
        },
        {
          "internalType": "uint256",
          "name": "deadline",
          "type": "uint256"
        },
        {
          "internalType": "uint8",
          "name": "v",
          "type": "uint8"
        },
        {
          "internalType": "bytes32",
          "name": "r",
          "type": "bytes32"
        },
        {
          "internalType": "bytes32",
          "name": "s",
          "type": "bytes32"
        }
      ],
      "name": "permit",
      "outputs": [],
      "stateMutability": "nonpayable",
      "type": "function"
    },
    {
      "inputs": [
        {
          "internalType": "address",
          "name": "_account",
          "type": "address"
        }
      ],
      "name": "prohibit",
      "outputs": [],
      "stateMutability": "nonpayable",
      "type": "function"
    },
    {
      "inputs": [
        {
          "internalType": "address",
          "name": "",
          "type": "address"
        }
      ],
      "name": "prohibiteds",
      "outputs": [
        {
          "internalType": "bool",
          "name": "",
          "type": "bool"
        }
      ],
      "stateMutability": "view",
      "type": "function",
      "constant": true
    },
    {
      "inputs": [],
      "name": "prohibiter",
      "outputs": [
        {
          "internalType": "address",
          "name": "",
          "type": "address"
        }
      ],
      "stateMutability": "view",
      "type": "function",
      "constant": true
    },
    {
      "inputs": [],
      "name": "symbol",
      "outputs": [
        {
          "internalType": "string",
          "name": "",
          "type": "string"
        }
      ],
      "stateMutability": "view",
      "type": "function",
      "constant": true
    },
    {
      "inputs": [],
      "name": "totalSupply",
      "outputs": [
        {
          "internalType": "uint256",
          "name": "",
          "type": "uint256"
        }
      ],
      "stateMutability": "view",
      "type": "function",
      "constant": true
    },
    {
      "inputs": [
        {
          "internalType": "address",
          "name": "_recipient",
          "type": "address"
        },
        {
          "internalType": "uint256",
          "name": "_amount",
          "type": "uint256"
        }
      ],
      "name": "transfer",
      "outputs": [
        {
          "internalType": "bool",
          "name": "",
          "type": "bool"
        }
      ],
      "stateMutability": "nonpayable",
      "type": "function"
    },
    {
      "inputs": [
        {
          "internalType": "address",
          "name": "_sender",
          "type": "address"
        },
        {
          "internalType": "address",
          "name": "_recipient",
          "type": "address"
        },
        {
          "internalType": "uint256",
          "name": "_amount",
          "type": "uint256"
        }
      ],
      "name": "transferFrom",
      "outputs": [
        {
          "internalType": "bool",
          "name": "",
          "type": "bool"
        }
      ],
      "stateMutability": "nonpayable",
      "type": "function"
    },
    {
      "inputs": [
        {
          "internalType": "address",
          "name": "from",
          "type": "address"
        },
        {
          "internalType": "address",
          "name": "to",
          "type": "address"
        },
        {
          "internalType": "uint256",
          "name": "value",
          "type": "uint256"
        },
        {
          "internalType": "uint256",
          "name": "validAfter",
          "type": "uint256"
        },
        {
          "internalType": "uint256",
          "name": "validBefore",
          "type": "uint256"
        },
        {
          "internalType": "bytes32",
          "name": "nonce",
          "type": "bytes32"
        },
        {
          "internalType": "uint8",
          "name": "v",
          "type": "uint8"
        },
        {
          "internalType": "bytes32",
          "name": "r",
          "type": "bytes32"
        },
        {
          "internalType": "bytes32",
          "name": "s",
          "type": "bytes32"
        }
      ],
      "name": "transferWithAuthorization",
      "outputs": [],
      "stateMutability": "nonpayable",
      "type": "function"
    },
    {
      "inputs": [],
      "name": "unpause",
      "outputs": [],
      "stateMutability": "nonpayable",
      "type": "function"
    },
    {
      "inputs": [
        {
          "internalType": "address",
          "name": "_account",
          "type": "address"
        }
      ],
      "name": "unprohibit",
      "outputs": [],
      "stateMutability": "nonpayable",
      "type": "function"
    },
    {
      "inputs": [],
      "name": "wiper",
      "outputs": [
        {
          "internalType": "address",
          "name": "",
          "type": "address"
        }
      ],
      "stateMutability": "view",
      "type": "function",
      "constant": true
    },
    {
      "inputs": [
        {
          "internalType": "string",
          "name": "_newName",
          "type": "string"
        },
        {
          "internalType": "address",
          "name": "_wiper",
          "type": "address"
        },
        {
          "internalType": "address",
          "name": "_forwarder",
          "type": "address"
        }
      ],
      "name": "initializeV2",
      "outputs": [],
      "stateMutability": "nonpayable",
      "type": "function"
    },
    {
      "inputs": [
        {
          "internalType": "address",
          "name": "_account",
          "type": "address"
        }
      ],
      "name": "wipeProhibitedAddress",
      "outputs": [],
      "stateMutability": "nonpayable",
      "type": "function"
    }
  ],
  "bytecode": "0x60806040526000603655603780546001600160a01b0319908116909155603880546001600160a81b03191690556039805482169055603b805482169055603c805482169055603d805482169055603e8054909116905560418054610100600160a81b031916905534801561007257600080fd5b50614303806100826000396000f3fe608060405234801561001057600080fd5b50600436106103785760003560e01c80638456cb59116101d3578063c237108f11610104578063dd62ed3e116100a2578063e3ee160e1161007c578063e3ee160e14610c32578063e94a010214610c91578063f851a44014610cde578063ff2ad8e414610ce657610378565b8063dd62ed3e14610b9d578063dd75049b14610bcb578063e1560fd314610bd357610378565b8063cffdd46c116100de578063cffdd46c14610b16578063d505accf14610b3c578063d916948714610b8d578063dcb413c814610b9557610378565b8063c237108f14610a89578063c4e1ccf214610ae8578063c7b84f8d14610b0e57610378565b8063a457c2d711610171578063a9059cbb1161014b578063a9059cbb14610869578063b008609514610895578063b0e71766146108f4578063b89da6421461091a57610378565b8063a457c2d71461080f578063a6f9dae11461083b578063a754d48f1461086157610378565b8063949a3652116101ad578063949a3652146107d157806395d89b41146107f75780639fd0506d146107ff578063a0cc6a681461080757610378565b80638456cb591461079b5780638da5cb5b146107a35780638f283970146107ab57610378565b806339509351116102ad5780635a049a701161024b578063659f50dc11610225578063659f50dc146106a8578063664dc7241461072957806370a082311461074f5780637ecebe001461077557610378565b80635a049a70146106575780635c975abb146106985780635cfc1a51146106a057610378565b806340c10f191161028757806340c10f19146105fe57806342966c681461062a5780634b71f5c31461064757806350a6aaf41461064f57610378565b806339509351146105a45780633b6aa12b146105d05780633f4ba83a146105f657610378565b80632ad3ed6d1161031a5780632fee80d0116102f45780632fee80d01461055057806330adf81f14610576578063313ce5671461057e5780633644e5151461059c57610378565b80632ad3ed6d146104de5780632c4d4d18146105045780632cd271e71461052a57610378565b8063095ea7b311610356578063095ea7b31461044657806310c8b4041461048657806318160ddd146104a057806323b872dd146104a857610378565b80630628922d1461037d57806306fdde03146103a55780630754617214610422575b600080fd5b6103a36004803603602081101561039357600080fd5b50356001600160a01b0316610d03565b005b6103ad610e51565b6040805160208082528351818301528351919283929083019185019080838360005b838110156103e75781810151838201526020016103cf565b50505050905090810190601f1680156104145780820380516001836020036101000a031916815260200191505b509250505060405180910390f35b61042a610edf565b604080516001600160a01b039092168252519081900360200190f35b6104726004803603604081101561045c57600080fd5b506001600160a01b038135169060200135610eee565b604080519115158252519081900360200190f35b61048e610f04565b60408051918252519081900360200190f35b61048e610f28565b610472600480360360608110156104be57600080fd5b506001600160a01b03813581169160208101359091169060400135610f2e565b610472600480360360208110156104f457600080fd5b50356001600160a01b0316611040565b6103a36004803603602081101561051a57600080fd5b50356001600160a01b0316611055565b6103a36004803603602081101561054057600080fd5b50356001600160a01b031661118d565b6103a36004803603602081101561056657600080fd5b50356001600160a01b031661127c565b61048e6113c6565b6105866113ea565b6040805160ff9092168252519081900360200190f35b61048e6113f3565b610472600480360360408110156105ba57600080fd5b506001600160a01b0381351690602001356113f9565b6103a3600480360360208110156105e657600080fd5b50356001600160a01b0316611434565b6103a36115af565b6103a36004803603604081101561061457600080fd5b506001600160a01b0381351690602001356116be565b6103a36004803603602081101561064057600080fd5b503561184d565b61048e6118d2565b61042a6118f6565b6103a3600480360360a081101561066d57600080fd5b506001600160a01b038135169060208101359060ff6040820135169060608101359060800135611905565b610472611a66565b61048e611a76565b6103a3600480360360608110156106be57600080fd5b8101906020810181356401000000008111156106d957600080fd5b8201836020820111156106eb57600080fd5b8035906020019184600183028401116401000000008311171561070d57600080fd5b91935091506001600160a01b0381358116916020013516611a7c565b6103a36004803603602081101561073f57600080fd5b50356001600160a01b0316611bc9565b61048e6004803603602081101561076557600080fd5b50356001600160a01b0316611d88565b61048e6004803603602081101561078b57600080fd5b50356001600160a01b0316611da3565b6103a3611dbe565b61042a611ec1565b6103a3600480360360208110156107c157600080fd5b50356001600160a01b0316611ed0565b6103a3600480360360208110156107e757600080fd5b50356001600160a01b0316611fd1565b6103ad612091565b61042a6120ea565b61048e6120f9565b6104726004803603604081101561082557600080fd5b506001600160a01b03813516906020013561211d565b6103a36004803603602081101561085157600080fd5b50356001600160a01b0316612153565b61042a6122a1565b6104726004803603604081101561087f57600080fd5b506001600160a01b0381351690602001356122b0565b6103a360048036036101208110156108ac57600080fd5b506001600160a01b03813581169160208101359091169060408101359060608101359060808101359060a08101359060ff60c0820135169060e08101359061010001356123b8565b6103a36004803603602081101561090a57600080fd5b50356001600160a01b031661250b565b6103a3600480360361014081101561093157600080fd5b81019060208101813564010000000081111561094c57600080fd5b82018360208201111561095e57600080fd5b8035906020019184600183028401116401000000008311171561098057600080fd5b91908080601f01602080910402602001604051908101604052809392919081815260200183838082843760009201919091525092959493602081019350359150506401000000008111156109d357600080fd5b8201836020820111156109e557600080fd5b80359060200191846001830284011164010000000083111715610a0757600080fd5b91908080601f0160208091040260200160405190810160405280939291908181526020018383808284376000920191909152509295505060ff8335169350506001600160a01b0360208301358116926040810135821692506060810135821691608082013581169160a081013582169160c082013581169160e0013516612647565b6103a36004803603610120811015610aa057600080fd5b506001600160a01b03813581169160208101359091169060408101359060608101359060808101359060a08101359060ff60c0820135169060e0810135906101000135612a15565b6103a360048036036020811015610afe57600080fd5b50356001600160a01b0316612b56565b61048e612d21565b6103a360048036036020811015610b2c57600080fd5b50356001600160a01b0316612d45565b6103a3600480360360e0811015610b5257600080fd5b506001600160a01b03813581169160208101359091169060408101359060608101359060ff6080820135169060a08101359060c00135612e81565b61048e613029565b61042a61304d565b61048e60048036036040811015610bb357600080fd5b506001600160a01b0381358116916020013516613061565b61042a61308c565b6103a36004803603610120811015610bea57600080fd5b506001600160a01b03813581169160208101359091169060408101359060608101359060808101359060a08101359060ff60c0820135169060e081013590610100013561309b565b6103a36004803603610120811015610c4957600080fd5b506001600160a01b03813581169160208101359091169060408101359060608101359060808101359060a08101359060ff60c0820135169060e08101359061010001356131d4565b610cbd60048036036040811015610ca757600080fd5b506001600160a01b03813516906020013561337a565b60405180826002811115610ccd57fe5b815260200191505060405180910390f35b61042a6133a5565b6103a360048036036020811015610cfc57600080fd5b50356133b4565b603e546001600160a01b03163314610d62576040805162461bcd60e51b815260206004820152601b60248201527f7468652073656e646572206973206e6f7420746865206f776e65720000000000604482015290519081900360640190fd5b603854600160a01b900460ff1615610daf576040805162461bcd60e51b81526020600482015260196024820152600080516020614083833981519152604482015290519081900360640190fd5b806001600160a01b038116610df9576040805162461bcd60e51b81526020600482018190526024820152600080516020614019833981519152604482015290519081900360640190fd5b603d80546001600160a01b038481166001600160a01b03198316179283905560405191811692339291169083907f4a85a5117c27071f301f0a758ea45cef77712d3d8358f0883b21c46ee1693d6790600090a4505050565b603f805460408051602060026001851615610100026000190190941693909304601f81018490048402820184019092528181529291830182828015610ed75780601f10610eac57610100808354040283529160200191610ed7565b820191906000526020600020905b815481529060010190602001808311610eba57829003601f168201915b505050505081565b603c546001600160a01b031681565b6000610efb3384846134f3565b50600192915050565b7f808c10407a796f3ef2c7ea38c0638ea9d2b8a1c63e3ca9e1f56ce84ae59df73c81565b60355490565b603854600090600160a01b900460ff1615610f7e576040805162461bcd60e51b81526020600482015260196024820152600080516020614083833981519152604482015290519081900360640190fd5b6001600160a01b0384166000908152603a6020526040902054849060ff1615610feb576040805162461bcd60e51b815260206004820152601a6024820152791d1a1a5cc81858d8dbdd5b9d081a5cc81c1c9bda1a589a5d195960321b604482015290519081900360640190fd5b828060001061102b5760405162461bcd60e51b815260040180806020018281038252602381526020018061411e6023913960400191505060405180910390fd5b6110368686866135df565b9695505050505050565b603a6020526000908152604090205460ff1681565b603d546001600160a01b0316331461109e5760405162461bcd60e51b81526004018080602001828103825260218152602001806140a36021913960400191505060405180910390fd5b603854600160a01b900460ff16156110eb576040805162461bcd60e51b81526020600482015260196024820152600080516020614083833981519152604482015290519081900360640190fd5b806001600160a01b038116611135576040805162461bcd60e51b81526020600482018190526024820152600080516020614019833981519152604482015290519081900360640190fd5b603c80546001600160a01b038481166001600160a01b03198316179283905560405191811692339291169083907f6970e71b2bda096f4eb3290c554af7a888cca0ef8b95da09c55b23c6bb30e38190600090a4505050565b603b546001600160a01b031633146111da576040805162461bcd60e51b815260206004820152601b6024820152600080516020613f51833981519152604482015290519081900360640190fd5b806001600160a01b038116611224576040805162461bcd60e51b81526020600482018190526024820152600080516020614019833981519152604482015290519081900360640190fd5b603880546001600160a01b038481166001600160a01b03198316179283905560405191811692339291169083907f8b1ee37fa817a066fe12c7c9bf109c0c9f8f03ef0a5cfe0c03d5196e8c2e465790600090a4505050565b603b546001600160a01b031633146112c9576040805162461bcd60e51b815260206004820152601b6024820152600080516020613f51833981519152604482015290519081900360640190fd5b603854600160a01b900460ff1615611316576040805162461bcd60e51b81526020600482015260196024820152600080516020614083833981519152604482015290519081900360640190fd5b806001600160a01b038116611360576040805162461bcd60e51b81526020600482018190526024820152600080516020614019833981519152604482015290519081900360640190fd5b604180546001600160a01b03848116610100908102610100600160a81b0319841617938490556040519281900482169333939190049091169083907fd8d09cf07cabd1c0519931ab387ce1b6e580584a26fb2787b8ed7f446c34603f90600090a4505050565b7f6e71edae12b1b97f4d1f60370fef10105fa2faae0126114a169c64845d6126c981565b60415460ff1681565b60425481565b3360008181526034602090815260408083206001600160a01b03871684529091528120549091610efb91859061142f908661362b565b6134f3565b603854600160a01b900460ff1615611481576040805162461bcd60e51b81526020600482015260196024820152600080516020614083833981519152604482015290519081900360640190fd5b60415461010090046001600160a01b031633146114e5576040805162461bcd60e51b815260206004820152601b60248201527f7468652073656e646572206973206e6f74207468652077697065720000000000604482015290519081900360640190fd5b6001600160a01b0381166000908152603a6020526040902054819060ff16611554576040805162461bcd60e51b815260206004820152601e60248201527f74686973206163636f756e74206973206e6f742070726f686962697465640000604482015290519081900360640190fd5b600061155f83611d88565b905061156b838261368c565b6040805182815290516001600160a01b038516917f0c33c145e6d9d2a0b65f5f10329f8667d6538b98b55d7895abec66e917019a54919081900360200190a2505050565b6038546001600160a01b0316331461160e576040805162461bcd60e51b815260206004820152601c60248201527f7468652073656e646572206973206e6f74207468652070617573657200000000604482015290519081900360640190fd5b603854600160a01b900460ff1661166c576040805162461bcd60e51b815260206004820152601d60248201527f74686973206973206e6f7420612070617573656420636f6e7472616374000000604482015290519081900360640190fd5b6038805460ff60a01b19169081905560408051600160a01b90920460ff16151582525133917f5a9dfee0981174e5203ccf9368a8cabb254f9dea6ca43f96b4bbd10c69415d8a919081900360200190a2565b603c546001600160a01b0316331461171d576040805162461bcd60e51b815260206004820152601c60248201527f7468652073656e646572206973206e6f7420746865206d696e74657200000000604482015290519081900360640190fd5b603854600160a01b900460ff161561176a576040805162461bcd60e51b81526020600482015260196024820152600080516020614083833981519152604482015290519081900360640190fd5b61177c81611776610f28565b9061362b565b6036548111156117bd5760405162461bcd60e51b81526004018080602001828103825260218152602001806142ad6021913960400191505060405180910390fd5b81806000106117fd5760405162461bcd60e51b815260040180806020018281038252602381526020018061411e6023913960400191505060405180910390fd5b611807848461375b565b60408051848152905133916001600160a01b038716917fbcad3d7d3dfccb90d49c6063bf70f828901fefc88937d90af74e58e6e55bc39d9181900360200190a350505050565b808060001061188d5760405162461bcd60e51b815260040180806020018281038252602381526020018061411e6023913960400191505060405180910390fd5b611897338361368c565b604080518381529051339182917fdbdf9b8e4b75e75b162d151ec8fc7f0561cabab5fcccfa2600be62223e4300c49181900360200190a35050565b7fb70559e94cbda91958ebec07f9b65b3b490097c8d25c8dacd71105df1015b6d881565b6037546001600160a01b031681565b603854600160a01b900460ff1615611952576040805162461bcd60e51b81526020600482015260196024820152600080516020614083833981519152604482015290519081900360640190fd5b61195c8585613841565b604080517f158b0a9edf7a828aad02f63cd515c68ef2f50ba807396f6d12842833a159742960208201526001600160a01b03871681830181905260608281018890528351808403909101815260809092019092526042549091906119c390868686866138af565b6001600160a01b031614611a085760405162461bcd60e51b815260040180806020018281038252602681526020018061405d6026913960400191505060405180910390fd5b6001600160a01b0386166000818152604360209081526040808320898452909152808220805460ff19166002179055518792917f1cdd46ff242716cdaa72d159d339a485b3438398348d68f09d7c8c0a59353d8191a3505050505050565b603854600160a01b900460ff1681565b60365481565b60455460ff1615611ad4576040805162461bcd60e51b815260206004820152601f60248201527f436f6e747261637420697320616c726561647920696e697469616c697a656400604482015290519081900360640190fd5b611ae0603f8585613e2c565b5060418054610100600160a81b0319166101006001600160a01b038516810291909117909155603f8054604080516020600260018516159096026000190190931694909404601f8101839004830285018301909152808452611bb3939291830182828015611b8f5780601f10611b6457610100808354040283529160200191611b8f565b820191906000526020600020905b815481529060010190602001808311611b7257829003601f168201915b5050505050604051806040016040528060018152602001601960f91b815250613906565b60425550506045805460ff191660011790555050565b6039546001600160a01b03163314611c28576040805162461bcd60e51b815260206004820181905260248201527f7468652073656e646572206973206e6f74207468652070726f68696269746572604482015290519081900360640190fd5b603854600160a01b900460ff1615611c75576040805162461bcd60e51b81526020600482015260196024820152600080516020614083833981519152604482015290519081900360640190fd5b806001600160a01b038116611cbf576040805162461bcd60e51b81526020600482018190526024820152600080516020614019833981519152604482015290519081900360640190fd5b6001600160a01b0382166000908152603a6020526040902054829060ff16611d2e576040805162461bcd60e51b815260206004820152601e60248201527f74686973206163636f756e74206973206e6f742070726f686962697465640000604482015290519081900360640190fd5b6001600160a01b0383166000818152603a60209081526040808320805460ff191690558051928352513393927fab0ab2fa6ff81b10c5afab4726a665d4379f2d0acaaafbe4c4d737ade05a8e4692908290030190a3505050565b6001600160a01b031660009081526033602052604090205490565b6001600160a01b031660009081526044602052604090205490565b6038546001600160a01b03163314611e1d576040805162461bcd60e51b815260206004820152601c60248201527f7468652073656e646572206973206e6f74207468652070617573657200000000604482015290519081900360640190fd5b603854600160a01b900460ff1615611e6a576040805162461bcd60e51b81526020600482015260196024820152600080516020614083833981519152604482015290519081900360640190fd5b6038805460ff60a01b1916600160a01b90811791829055604080519190920460ff1615158152905133917f5a9dfee0981174e5203ccf9368a8cabb254f9dea6ca43f96b4bbd10c69415d8a919081900360200190a2565b603e546001600160a01b031681565b603e546001600160a01b03163314611f2f576040805162461bcd60e51b815260206004820152601b60248201527f7468652073656e646572206973206e6f7420746865206f776e65720000000000604482015290519081900360640190fd5b806001600160a01b038116611f79576040805162461bcd60e51b81526020600482018190526024820152600080516020614019833981519152604482015290519081900360640190fd5b603b80546001600160a01b038481166001600160a01b03198316179283905560405191811692339291169083907f4eb572e99196bed0270fbd5b17a948e19c3f50a97838cb0d2a75a823ff8e6c5090600090a4505050565b806001600160a01b03811661201b576040805162461bcd60e51b81526020600482018190526024820152600080516020614019833981519152604482015290519081900360640190fd5b60415461010090046001600160a01b0316156120685760405162461bcd60e51b81526004018080602001828103825260248152602001806140396024913960400191505060405180910390fd5b50604180546001600160a01b0390921661010002610100600160a81b0319909216919091179055565b604080548151602060026001841615610100026000190190931692909204601f81018390048302820183018452808252909291830182828015610ed75780601f10610eac57610100808354040283529160200191610ed7565b6038546001600160a01b031681565b7f7c7c6cdb67a18743f49ec6fa9b35f50d52ed05cbed4cc592e13b44501c1a226781565b3360008181526034602090815260408083206001600160a01b03871684529091528120549091610efb91859061142f9086613978565b603e546001600160a01b031633146121b2576040805162461bcd60e51b815260206004820152601b60248201527f7468652073656e646572206973206e6f7420746865206f776e65720000000000604482015290519081900360640190fd5b603854600160a01b900460ff16156121ff576040805162461bcd60e51b81526020600482015260196024820152600080516020614083833981519152604482015290519081900360640190fd5b806001600160a01b038116612249576040805162461bcd60e51b81526020600482018190526024820152600080516020614019833981519152604482015290519081900360640190fd5b603e80546001600160a01b038481166001600160a01b03198316179283905560405191811692339291169083907f381c0d11398486654573703c51ee8210ce9461764d133f9f0e53b6a53970533190600090a4505050565b603d546001600160a01b031681565b603854600090600160a01b900460ff1615612300576040805162461bcd60e51b81526020600482015260196024820152600080516020614083833981519152604482015290519081900360640190fd5b336000818152603a602052604090205460ff1615612362576040805162461bcd60e51b815260206004820152601a6024820152791d1a1a5cc81858d8dbdd5b9d081a5cc81c1c9bda1a589a5d195960321b604482015290519081900360640190fd5b82806000106123a25760405162461bcd60e51b815260040180806020018281038252602381526020018061411e6023913960400191505060405180910390fd5b6123ad3386866139ba565b506001949350505050565b603854600160a01b900460ff1615612405576040805162461bcd60e51b81526020600482015260196024820152600080516020614083833981519152604482015290519081900360640190fd5b61241189858888613af2565b604080517fb70559e94cbda91958ebec07f9b65b3b490097c8d25c8dacd71105df1015b6d860208201526001600160a01b03808c16828401819052908b166060830152608082018a905260a0820189905260c0820188905260e08083018890528351808403909101815261010090920190925260425490919061249790868686866138af565b6001600160a01b0316146124dc5760405162461bcd60e51b81526004018080602001828103825260358152602001806141416035913960400191505060405180910390fd5b6124e68a86613b7e565b6124ff8a8a61142f8b6124f98f8f613061565b90613978565b50505050505050505050565b603b546001600160a01b03163314612558576040805162461bcd60e51b815260206004820152601b6024820152600080516020613f51833981519152604482015290519081900360640190fd5b603854600160a01b900460ff16156125a5576040805162461bcd60e51b81526020600482015260196024820152600080516020614083833981519152604482015290519081900360640190fd5b806001600160a01b0381166125ef576040805162461bcd60e51b81526020600482018190526024820152600080516020614019833981519152604482015290519081900360640190fd5b603780546001600160a01b038481166001600160a01b03198316179283905560405191811692339291169083907fc4d5c17597bd0c5594a7545f36de213c6a58e2f235b165887331fe368618197090600090a4505050565b600054610100900460ff16806126605750612660613bd8565b8061266e575060005460ff16155b6126a95760405162461bcd60e51b815260040180806020018281038252602e8152602001806140f0602e913960400191505060405180910390fd5b600054610100900460ff161580156126d4576000805460ff1961ff0019909116610100171660011790555b6001600160a01b03881661272f576040805162461bcd60e51b815260206004820152601a60248201527f5f6f776e657220697320746865207a65726f2061646472657373000000000000604482015290519081900360640190fd5b6001600160a01b03871661278a576040805162461bcd60e51b815260206004820152601a60248201527f5f61646d696e20697320746865207a65726f2061646472657373000000000000604482015290519081900360640190fd5b6001600160a01b0386166127e5576040805162461bcd60e51b815260206004820152601b60248201527f5f63617070657220697320746865207a65726f20616464726573730000000000604482015290519081900360640190fd5b6001600160a01b038516612840576040805162461bcd60e51b815260206004820152601f60248201527f5f70726f6869626974657220697320746865207a65726f206164647265737300604482015290519081900360640190fd5b6001600160a01b03841661289b576040805162461bcd60e51b815260206004820152601b60248201527f5f70617573657220697320746865207a65726f20616464726573730000000000604482015290519081900360640190fd5b6001600160a01b0383166128f6576040805162461bcd60e51b815260206004820181905260248201527f5f6d696e74657241646d696e20697320746865207a65726f2061646472657373604482015290519081900360640190fd5b6001600160a01b038216612951576040805162461bcd60e51b815260206004820152601b60248201527f5f6d696e74657220697320746865207a65726f20616464726573730000000000604482015290519081900360640190fd5b8a5161296490603f9060208e0190613eaa565b5089516129789060409060208d0190613eaa565b506041805460ff191660ff8b16179055603e80546001600160a01b03199081166001600160a01b038b811691909117909255603b805482168a8416179055603780548216898416179055603980548216888416179055603880548216878416179055603d80548216868416179055603c80549091169184169190911790558015612a08576000805461ff00191690555b5050505050505050505050565b603854600160a01b900460ff1615612a62576040805162461bcd60e51b81526020600482015260196024820152600080516020614083833981519152604482015290519081900360640190fd5b612a6e89858888613af2565b604080517f424222bb050a1f7f14017232a5671f2680a2d3420f504bd565cf03035c53198a60208201526001600160a01b03808c16828401819052908b166060830152608082018a905260a0820189905260c0820188905260e080830188905283518084039091018152610100909201909252604254909190612af490868686866138af565b6001600160a01b031614612b395760405162461bcd60e51b8152600401808060200182810382526035815260200180613f716035913960400191505060405180910390fd5b612b438a86613b7e565b6124ff8a8a61142f8b6117768f8f613061565b6039546001600160a01b03163314612bb5576040805162461bcd60e51b815260206004820181905260248201527f7468652073656e646572206973206e6f74207468652070726f68696269746572604482015290519081900360640190fd5b603854600160a01b900460ff1615612c02576040805162461bcd60e51b81526020600482015260196024820152600080516020614083833981519152604482015290519081900360640190fd5b806001600160a01b038116612c4c576040805162461bcd60e51b81526020600482018190526024820152600080516020614019833981519152604482015290519081900360640190fd5b6001600160a01b0382166000908152603a6020526040902054829060ff1615612cb9576040805162461bcd60e51b815260206004820152601a6024820152791d1a1a5cc81858d8dbdd5b9d081a5cc81c1c9bda1a589a5d195960321b604482015290519081900360640190fd5b6001600160a01b0383166000818152603a6020908152604091829020805460ff191660011790819055825160ff919091161515815291513393927fab0ab2fa6ff81b10c5afab4726a665d4379f2d0acaaafbe4c4d737ade05a8e4692908290030190a3505050565b7f424222bb050a1f7f14017232a5671f2680a2d3420f504bd565cf03035c53198a81565b603b546001600160a01b03163314612d92576040805162461bcd60e51b815260206004820152601b6024820152600080516020613f51833981519152604482015290519081900360640190fd5b603854600160a01b900460ff1615612ddf576040805162461bcd60e51b81526020600482015260196024820152600080516020614083833981519152604482015290519081900360640190fd5b806001600160a01b038116612e29576040805162461bcd60e51b81526020600482018190526024820152600080516020614019833981519152604482015290519081900360640190fd5b603980546001600160a01b038481166001600160a01b03198316179283905560405191811692339291169083907f85ae865187b1d7c0069f5fab638cbfcb8f3f9d23bc090e1084abc0dc42def0d290600090a4505050565b603854600160a01b900460ff1615612ece576040805162461bcd60e51b81526020600482015260196024820152600080516020614083833981519152604482015290519081900360640190fd5b42841015612f23576040805162461bcd60e51b815260206004820152601e60248201527f46696174546f6b656e56323a207065726d697420697320657870697265640000604482015290519081900360640190fd5b6001600160a01b0380881660008181526044602090815260409182902080546001810190915582517f6e71edae12b1b97f4d1f60370fef10105fa2faae0126114a169c64845d6126c992810192909252818301849052938a1660608201526080810189905260a081019390935260c08084018890528151808503909101815260e09093019052604254612fb990868686866138af565b6001600160a01b031614613014576040805162461bcd60e51b815260206004820152601960248201527f7065726d69743a20696e76616c6964207369676e617475726500000000000000604482015290519081900360640190fd5b61301f8888886134f3565b5050505050505050565b7f158b0a9edf7a828aad02f63cd515c68ef2f50ba807396f6d12842833a159742981565b60415461010090046001600160a01b031681565b6001600160a01b03918216600090815260346020908152604080832093909416825291909152205490565b6039546001600160a01b031681565b603854600160a01b900460ff16156130e8576040805162461bcd60e51b81526020600482015260196024820152600080516020614083833981519152604482015290519081900360640190fd5b6130f489858888613af2565b604080517f808c10407a796f3ef2c7ea38c0638ea9d2b8a1c63e3ca9e1f56ce84ae59df73c60208201526001600160a01b03808c16828401819052908b166060830152608082018a905260a0820189905260c0820188905260e08083018890528351808403909101815261010090920190925260425490919061317a90868686866138af565b6001600160a01b0316146131bf5760405162461bcd60e51b815260040180806020018281038252602b8152602001806141bc602b913960400191505060405180910390fd5b6131c98a86613b7e565b6124ff8a8a8a6134f3565b603854600160a01b900460ff1615613221576040805162461bcd60e51b81526020600482015260196024820152600080516020614083833981519152604482015290519081900360640190fd5b6001600160a01b0389166000908152603a6020526040902054899060ff161561328e576040805162461bcd60e51b815260206004820152601a6024820152791d1a1a5cc81858d8dbdd5b9d081a5cc81c1c9bda1a589a5d195960321b604482015290519081900360640190fd5b61329a8a868989613af2565b604080517f7c7c6cdb67a18743f49ec6fa9b35f50d52ed05cbed4cc592e13b44501c1a226760208201526001600160a01b03808d16828401819052908c166060830152608082018b905260a082018a905260c0820189905260e08083018990528351808403909101815261010090920190925260425490919061332090878787866138af565b6001600160a01b0316146133655760405162461bcd60e51b815260040180806020018281038252602c8152602001806140c4602c913960400191505060405180910390fd5b61336f8b87613b7e565b612a088b8b8b6139ba565b6001600160a01b03919091166000908152604360209081526040808320938352929052205460ff1690565b603b546001600160a01b031681565b6037546001600160a01b03163314613413576040805162461bcd60e51b815260206004820152601c60248201527f7468652073656e646572206973206e6f74207468652063617070657200000000604482015290519081900360640190fd5b603854600160a01b900460ff1615613460576040805162461bcd60e51b81526020600482015260196024820152600080516020614083833981519152604482015290519081900360640190fd5b80806000106134a05760405162461bcd60e51b815260040180806020018281038252602381526020018061411e6023913960400191505060405180910390fd5b816134a9610f28565b11156134e65760405162461bcd60e51b815260040180806020018281038252602981526020018061420b6029913960400191505060405180910390fd5b6134ef82613bde565b5050565b6001600160a01b0383166135385760405162461bcd60e51b81526004018080602001828103825260248152602001806141e76024913960400191505060405180910390fd5b6001600160a01b03821661357d5760405162461bcd60e51b8152600401808060200182810382526022815260200180613ff76022913960400191505060405180910390fd5b6001600160a01b03808416600081815260346020908152604080832094871680845294825291829020859055815185815291517f8c5be1e5ebec7d5bd14f71427d1e84f3dd0314c0f7b2291e5b200ac8c7c3b9259281900390910190a3505050565b60006135ec8484846139ba565b6001600160a01b03841660009081526034602090815260408083203380855292529091205461362191869161142f9086613978565b5060019392505050565b600082820183811015613685576040805162461bcd60e51b815260206004820152601b60248201527f536166654d6174683a206164646974696f6e206f766572666c6f770000000000604482015290519081900360640190fd5b9392505050565b6001600160a01b0382166136d15760405162461bcd60e51b81526004018080602001828103825260218152602001806141766021913960400191505060405180910390fd5b6035546136de9082613978565b6035556001600160a01b0382166000908152603360205260409020546137049082613978565b6001600160a01b0383166000818152603360209081526040808320949094558351858152935191937fddf252ad1be2c89b69c2b068fc378daa952ba7f163c4a11628f55a4df523b3ef929081900390910190a35050565b6001600160a01b0382166137b6576040805162461bcd60e51b815260206004820152601f60248201527f45524332303a206d696e7420746f20746865207a65726f206164647265737300604482015290519081900360640190fd5b6035546137c3908261362b565b6035556001600160a01b0382166000908152603360205260409020546137e9908261362b565b6001600160a01b03831660008181526033602090815260408083209490945583518581529351929391927fddf252ad1be2c89b69c2b068fc378daa952ba7f163c4a11628f55a4df523b3ef9281900390910190a35050565b6001600160a01b038216600090815260436020908152604080832084845290915281205460ff16600281111561387357fe5b146134ef5760405162461bcd60e51b815260040180806020018281038252602e81526020018061425a602e913960400191505060405180910390fd5b80516020808301919091206040805161190160f01b818501526022810189905260428082019390935281518082039093018352606201905280519101206000906138fb81878787613c13565b979650505050505050565b8151602092830120815191830191909120604080517f8b73c3c69bb8fe3d512ecc4cf759cc79239f7b179b0ffacaa9a75d522b39400f818601528082019390935260608301919091524660808301523060a0808401919091528151808403909101815260c09092019052805191012090565b600061368583836040518060400160405280601e81526020017f536166654d6174683a207375627472616374696f6e206f766572666c6f770000815250613d95565b6001600160a01b0383166139ff5760405162461bcd60e51b81526004018080602001828103825260258152602001806141976025913960400191505060405180910390fd5b6001600160a01b038216613a445760405162461bcd60e51b8152600401808060200182810382526023815260200180613f2e6023913960400191505060405180910390fd5b6001600160a01b038316600090815260336020526040902054613a679082613978565b6001600160a01b038085166000908152603360205260408082209390935590841681522054613a96908261362b565b6001600160a01b0380841660008181526033602090815260409182902094909455805185815290519193928716927fddf252ad1be2c89b69c2b068fc378daa952ba7f163c4a11628f55a4df523b3ef92918290030190a3505050565b814211613b305760405162461bcd60e51b815260040180806020018281038252602b815260200180613fa6602b913960400191505060405180910390fd5b804210613b6e5760405162461bcd60e51b81526004018080602001828103825260258152602001806142886025913960400191505060405180910390fd5b613b788484613841565b50505050565b6001600160a01b0382166000818152604360209081526040808320858452909152808220805460ff19166001179055518392917f98de503528ee59b575ef0c0a2576a82497bfc029a5685b209e9ec333479b10a591a35050565b303b1590565b6036819055604051339082907f3bb5a3ed42af6c70969e54bbe40e4bba09c07f42c120cbec4ac0ee7eb0057fc990600090a350565b60007f7fffffffffffffffffffffffffffffff5d576e7357a4501ddfe92f46681b20a0821115613c745760405162461bcd60e51b81526004018080602001828103825260268152602001806142346026913960400191505060405180910390fd5b8360ff16601b14158015613c8c57508360ff16601c14155b15613cc85760405162461bcd60e51b8152600401808060200182810382526026815260200180613fd16026913960400191505060405180910390fd5b600060018686868660405160008152602001604052604051808581526020018460ff1681526020018381526020018281526020019450505050506020604051602081039080840390855afa158015613d24573d6000803e3d6000fd5b5050604051601f1901519150506001600160a01b038116613d8c576040805162461bcd60e51b815260206004820152601c60248201527f45435265636f7665723a20696e76616c6964207369676e617475726500000000604482015290519081900360640190fd5b95945050505050565b60008184841115613e245760405162461bcd60e51b81526004018080602001828103825283818151815260200191508051906020019080838360005b83811015613de9578181015183820152602001613dd1565b50505050905090810190601f168015613e165780820380516001836020036101000a031916815260200191505b509250505060405180910390fd5b505050900390565b828054600181600116156101000203166002900490600052602060002090601f016020900481019282601f10613e6d5782800160ff19823516178555613e9a565b82800160010185558215613e9a579182015b82811115613e9a578235825591602001919060010190613e7f565b50613ea6929150613f18565b5090565b828054600181600116156101000203166002900490600052602060002090601f016020900481019282601f10613eeb57805160ff1916838001178555613e9a565b82800160010185558215613e9a579182015b82811115613e9a578251825591602001919060010190613efd565b5b80821115613ea65760008155600101613f1956fe45524332303a207472616e7366657220746f20746865207a65726f20616464726573737468652073656e646572206973206e6f74207468652061646d696e0000000000696e637265617365416c6c6f77616e636557697468417574686f72697a6174696f6e3a20696e76616c6964207369676e617475726546696174546f6b656e56323a20617574686f72697a6174696f6e206973206e6f74207965742076616c696445435265636f7665723a20696e76616c6964207369676e6174757265202776272076616c756545524332303a20617070726f766520746f20746865207a65726f206164647265737374686973206163636f756e7420697320746865207a65726f20616464726573737468652077697065722063616e206f6e6c7920626520696e69746961746564206f6e636563616e63656c417574686f72697a6174696f6e3a20696e76616c6964207369676e61747572657468697320697320612070617573656420636f6e7472616374000000000000007468652073656e646572206973206e6f7420746865206d696e74657241646d696e7472616e7366657257697468417574686f72697a6174696f6e3a20696e76616c6964207369676e6174757265436f6e747261637420696e7374616e63652068617320616c7265616479206265656e20696e697469616c697a65647468697320616d6f756e74206973206e6f742061206e61747572616c206e756d6265726465637265617365416c6c6f77616e636557697468417574686f72697a6174696f6e3a20696e76616c6964207369676e617475726545524332303a206275726e2066726f6d20746865207a65726f206164647265737345524332303a207472616e736665722066726f6d20746865207a65726f2061646472657373617070726f766557697468417574686f72697a6174696f6e3a20696e76616c6964207369676e617475726545524332303a20617070726f76652066726f6d20746865207a65726f20616464726573737468697320616d6f756e74206973206c657373207468616e2074686520746f74616c79537570706c7945435265636f7665723a20696e76616c6964207369676e6174757265202773272076616c756546696174546f6b656e56323a20617574686f72697a6174696f6e2069732075736564206f722063616e63656c656446696174546f6b656e56323a20617574686f72697a6174696f6e20697320657870697265647468697320616d6f756e74206973206d6f7265207468616e206361706163697479a264697066735822122036c560475fd1f7f44b5e3f99f65d0b3b63ad0725c7c97c5f0af33b1c7d1c016564736f6c634300060c0033",
  "immutableReferences": {},
  "source": "// SPDX-License-Identifier: MIT\npragma solidity 0.6.12;\n\nimport \"./Token_v1.sol\";\nimport \"./Roles/Wiper.sol\";\nimport \"./Util/EIP712.sol\";\nimport \"./MetaTransactions.sol\";\nimport \"./Permit.sol\";\n\ncontract Token_v2 is Token_v1, Wiper, MetaTransactions, Permit  {\n\n    bool private _initializedV2;\n\n    event ProhibitedAddressWiped(address indexed addr, uint256 amount);\n\n    // initialize V2\n    function initializeV2(string calldata _newName, address _wiper, address _forwarder) external {\n        require(\n            !_initializedV2,\n            \"Contract is already initialized\"\n        );\n        //new name\n        name = _newName;\n\n        //initialize wiper\n        wiper = _wiper;\n\n        DOMAIN_SEPARATOR = EIP712.makeDomainSeparator(name, \"2\");\n\n        _forwarder;        \n        _initializedV2 = true;\n\n    }\n\n    // wipe balance of prohibited address\n    function wipeProhibitedAddress(address _account) public whenNotPaused onlyWiper onlyProhibited(_account) {\n        uint256 _balance = balanceOf(_account);\n        _burn(_account, _balance);\n        emit ProhibitedAddressWiped(_account, _balance);\n    }\n}",
  "sourcePath": "/Users/usr0102794/opengsn/metacoin/contracts/GYEN/Token_v2.sol",
  "compiler": {
    "name": "solc",
    "version": "0.6.12+commit.27d51765.Emscripten.clang"
  },
  "schemaVersion": "3.2.5",
  "updatedAt": "2020-12-17T00:18:55.139Z",
  "networkType": "ethereum",
  "devdoc": {
    "kind": "dev",
    "methods": {
      "allowance(address,address)": {
        "details": "See `IERC20.allowance`."
      },
      "approve(address,uint256)": {
        "details": "See `IERC20.approve`. Requirements: - `spender` cannot be the zero address."
      },
      "approveWithAuthorization(address,address,uint256,uint256,uint256,bytes32,uint8,bytes32,bytes32)": {
        "params": {
          "nonce": "Unique nonce",
          "owner": "Token owner's address (Authorizer)",
          "r": "r of the signature",
          "s": "s of the signature",
          "spender": "Spender's address",
          "v": "v of the signature",
          "validAfter": "The time after which this is valid (unix time)",
          "validBefore": "The time before which this is valid (unix time)",
          "value": "Amount of allowance"
        }
      },
      "authorizationState(address,bytes32)": {
        "params": {
          "authorizer": "Authorizer's address",
          "nonce": "Nonce of the authorization"
        },
        "returns": {
          "_0": "Authorization state"
        }
      },
      "balanceOf(address)": {
        "details": "See `IERC20.balanceOf`."
      },
      "cancelAuthorization(address,bytes32,uint8,bytes32,bytes32)": {
        "details": "Works only if the authorization is not yet used.",
        "params": {
          "authorizer": "Authorizer's address",
          "nonce": "Nonce of the authorization",
          "r": "r of the signature",
          "s": "s of the signature",
          "v": "v of the signature"
        }
      },
      "changeAdmin(address)": {
        "details": "\"whenNotPaused\" modifier should not be used here"
      },
      "changePauser(address)": {
        "details": "\"whenNotPaused\" modifier should not be used here"
      },
      "decreaseAllowance(address,uint256)": {
        "details": "Atomically decreases the allowance granted to `spender` by the caller. This is an alternative to `approve` that can be used as a mitigation for problems described in `IERC20.approve`. Emits an `Approval` event indicating the updated allowance. Requirements: - `spender` cannot be the zero address. - `spender` must have allowance for the caller of at least `subtractedValue`."
      },
      "decreaseAllowanceWithAuthorization(address,address,uint256,uint256,uint256,bytes32,uint8,bytes32,bytes32)": {
        "params": {
          "decrement": "Amount of decrease in allowance",
          "nonce": "Unique nonce",
          "owner": "Token owner's address (Authorizer)",
          "r": "r of the signature",
          "s": "s of the signature",
          "spender": "Spender's address",
          "v": "v of the signature",
          "validAfter": "The time after which this is valid (unix time)",
          "validBefore": "The time before which this is valid (unix time)"
        }
      },
      "increaseAllowance(address,uint256)": {
        "details": "Atomically increases the allowance granted to `spender` by the caller. This is an alternative to `approve` that can be used as a mitigation for problems described in `IERC20.approve`. Emits an `Approval` event indicating the updated allowance. Requirements: - `spender` cannot be the zero address."
      },
      "increaseAllowanceWithAuthorization(address,address,uint256,uint256,uint256,bytes32,uint8,bytes32,bytes32)": {
        "params": {
          "increment": "Amount of increase in allowance",
          "nonce": "Unique nonce",
          "owner": "Token owner's address (Authorizer)",
          "r": "r of the signature",
          "s": "s of the signature",
          "spender": "Spender's address",
          "v": "v of the signature",
          "validAfter": "The time after which this is valid (unix time)",
          "validBefore": "The time before which this is valid (unix time)"
        }
      },
      "nonces(address)": {
        "params": {
          "owner": "Token owner's address (Authorizer)"
        },
        "returns": {
          "_0": "Next nonce"
        }
      },
      "permit(address,address,uint256,uint256,uint8,bytes32,bytes32)": {
        "params": {
          "deadline": "Expiration time, seconds since the epoch",
          "owner": "Token owner's address (Authorizer)",
          "r": "r of the signature",
          "s": "s of the signature",
          "spender": "Spender's address",
          "v": "v of the signature",
          "value": "Amount of allowance"
        }
      },
      "totalSupply()": {
        "details": "See `IERC20.totalSupply`."
      },
      "transferWithAuthorization(address,address,uint256,uint256,uint256,bytes32,uint8,bytes32,bytes32)": {
        "params": {
          "from": "Payer's address (Authorizer)",
          "nonce": "Unique nonce",
          "r": "r of the signature",
          "s": "s of the signature",
          "to": "Payee's address",
          "v": "v of the signature",
          "validAfter": "The time after which this is valid (unix time)",
          "validBefore": "The time before which this is valid (unix time)",
          "value": "Amount to be transferred"
        }
      }
    },
    "version": 1
  },
  "userdoc": {
    "kind": "user",
    "methods": {
      "approveWithAuthorization(address,address,uint256,uint256,uint256,bytes32,uint8,bytes32,bytes32)": {
        "notice": "Update allowance with a signed authorization"
      },
      "authorizationState(address,bytes32)": {
        "notice": "Returns the state of an authorization"
      },
      "cancelAuthorization(address,bytes32,uint8,bytes32,bytes32)": {
        "notice": "Attempt to cancel an authorization"
      },
      "changeAdmin(address)": {
        "notice": "Change Admin"
      },
      "changePauser(address)": {
        "notice": "Change Pauser"
      },
      "decreaseAllowanceWithAuthorization(address,address,uint256,uint256,uint256,bytes32,uint8,bytes32,bytes32)": {
        "notice": "Decrease allowance with a signed authorization"
      },
      "increaseAllowanceWithAuthorization(address,address,uint256,uint256,uint256,bytes32,uint8,bytes32,bytes32)": {
        "notice": "Increase allowance with a signed authorization"
      },
      "nonces(address)": {
        "notice": "Nonces for permit"
      },
      "permit(address,address,uint256,uint256,uint8,bytes32,bytes32)": {
        "notice": "Update allowance with a signed permit"
      },
      "transferWithAuthorization(address,address,uint256,uint256,uint256,bytes32,uint8,bytes32,bytes32)": {
        "notice": "Execute a transfer with a signed authorization"
      }
    },
    "version": 1
  }
}